{
  "contractName": "ChoiceContract",
  "abi": [
    {
      "inputs": [],
      "stateMutability": "nonpayable",
      "type": "constructor"
    },
    {
      "anonymous": false,
      "inputs": [
        {
          "indexed": false,
          "internalType": "uint256",
          "name": "optionId",
          "type": "uint256"
        }
      ],
      "name": "Voted",
      "type": "event"
    },
    {
      "inputs": [
        {
          "internalType": "uint256",
          "name": "",
          "type": "uint256"
        }
      ],
      "name": "options",
      "outputs": [
        {
          "internalType": "uint256",
          "name": "id",
          "type": "uint256"
        },
        {
          "internalType": "string",
          "name": "name",
          "type": "string"
        },
        {
          "internalType": "uint256",
          "name": "voteCount",
          "type": "uint256"
        }
      ],
      "stateMutability": "view",
      "type": "function",
      "constant": true
    },
    {
      "inputs": [
        {
          "internalType": "string",
          "name": "_name",
          "type": "string"
        }
      ],
      "name": "addOption",
      "outputs": [],
      "stateMutability": "nonpayable",
      "type": "function"
    },
    {
      "inputs": [
        {
          "internalType": "uint256",
          "name": "_optionId",
          "type": "uint256"
        }
      ],
      "name": "vote",
      "outputs": [],
      "stateMutability": "nonpayable",
      "type": "function"
    },
    {
      "inputs": [
        {
          "internalType": "uint256",
          "name": "_optionId",
          "type": "uint256"
        }
      ],
      "name": "getVoteCount",
      "outputs": [
        {
          "internalType": "uint256",
          "name": "",
          "type": "uint256"
        }
      ],
      "stateMutability": "view",
      "type": "function",
      "constant": true
    }
  ],
  "bytecode": "0x60806040523480156200001157600080fd5b50620000586040518060400160405280600e81526020017f45726c696e67204861616c616e64000000000000000000000000000000000000815250620000ea60201b60201c565b6200009e6040518060400160405280600c81526020017f4c696f6e656c204d657373690000000000000000000000000000000000000000815250620000ea60201b60201c565b620000e46040518060400160405280600f81526020017f4b6576696e20446520427275796e650000000000000000000000000000000000815250620000ea60201b60201c565b62000546565b60006001600080549050620001009190620001b4565b905060006040518060600160405280838152602001848152602001600081525090806001815401808255809150506001900390600052602060002090600302016000909190919091506000820151816000015560208201518160010190816200016a91906200045f565b506040820151816002015550505050565b6000819050919050565b7f4e487b7100000000000000000000000000000000000000000000000000000000600052601160045260246000fd5b6000620001c1826200017b565b9150620001ce836200017b565b9250828201905080821115620001e957620001e862000185565b5b92915050565b600081519050919050565b7f4e487b7100000000000000000000000000000000000000000000000000000000600052604160045260246000fd5b7f4e487b7100000000000000000000000000000000000000000000000000000000600052602260045260246000fd5b600060028204905060018216806200027157607f821691505b60208210810362000287576200028662000229565b5b50919050565b60008190508160005260206000209050919050565b60006020601f8301049050919050565b600082821b905092915050565b600060088302620002f17fffffffffffffffffffffffffffffffffffffffffffffffffffffffffffffffff82620002b2565b620002fd8683620002b2565b95508019841693508086168417925050509392505050565b6000819050919050565b6000620003406200033a62000334846200017b565b62000315565b6200017b565b9050919050565b6000819050919050565b6200035c836200031f565b620003746200036b8262000347565b848454620002bf565b825550505050565b600090565b6200038b6200037c565b6200039881848462000351565b505050565b5b81811015620003c057620003b460008262000381565b6001810190506200039e565b5050565b601f8211156200040f57620003d9816200028d565b620003e484620002a2565b81016020851015620003f4578190505b6200040c6200040385620002a2565b8301826200039d565b50505b505050565b600082821c905092915050565b6000620004346000198460080262000414565b1980831691505092915050565b60006200044f838362000421565b9150826002028217905092915050565b6200046a82620001ef565b67ffffffffffffffff811115620004865762000485620001fa565b5b62000492825462000258565b6200049f828285620003c4565b600060209050601f831160018114620004d75760008415620004c2578287015190505b620004ce858262000441565b8655506200053e565b601f198416620004e7866200028d565b60005b828110156200051157848901518255600182019150602085019450602081019050620004ea565b868310156200053157848901516200052d601f89168262000421565b8355505b6001600288020188555050505b505050505050565b610b1d80620005566000396000f3fe608060405234801561001057600080fd5b506004361061004c5760003560e01c80630121b93f14610051578063409e22051461006d578063b2c2f2e81461009f578063edc550dc146100cf575b600080fd5b61006b600480360381019061006691906103ec565b6100eb565b005b610087600480360381019061008291906103ec565b6101c5565b604051610096939291906104b8565b60405180910390f35b6100b960048036038101906100b491906103ec565b610287565b6040516100c691906104f6565b60405180910390f35b6100e960048036038101906100e49190610646565b610315565b005b60008111801561010057506000805490508111155b61013f576040517f08c379a0000000000000000000000000000000000000000000000000000000008152600401610136906106db565b60405180910390fd5b60008060018361014f919061072a565b815481106101605761015f61075e565b5b906000526020600020906003020190508060020160008154809291906101859061078d565b91905055507f7f511e347bf51eed3be100b3194247d5207f05f3b33de7d31e3e8ee73199a049826040516101b991906104f6565b60405180910390a15050565b600081815481106101d557600080fd5b90600052602060002090600302016000915090508060000154908060010180546101fe90610804565b80601f016020809104026020016040519081016040528092919081815260200182805461022a90610804565b80156102775780601f1061024c57610100808354040283529160200191610277565b820191906000526020600020905b81548152906001019060200180831161025a57829003601f168201915b5050505050908060020154905083565b6000808211801561029d57506000805490508211155b6102dc576040517f08c379a00000000000000000000000000000000000000000000000000000000081526004016102d3906106db565b60405180910390fd5b60006001836102eb919061072a565b815481106102fc576102fb61075e565b5b9060005260206000209060030201600201549050919050565b600060016000805490506103299190610835565b905060006040518060600160405280838152602001848152602001600081525090806001815401808255809150506001900390600052602060002090600302016000909190919091506000820151816000015560208201518160010190816103919190610a15565b506040820151816002015550505050565b6000604051905090565b600080fd5b600080fd5b6000819050919050565b6103c9816103b6565b81146103d457600080fd5b50565b6000813590506103e6816103c0565b92915050565b600060208284031215610402576104016103ac565b5b6000610410848285016103d7565b91505092915050565b610422816103b6565b82525050565b600081519050919050565b600082825260208201905092915050565b60005b83811015610462578082015181840152602081019050610447565b60008484015250505050565b6000601f19601f8301169050919050565b600061048a82610428565b6104948185610433565b93506104a4818560208601610444565b6104ad8161046e565b840191505092915050565b60006060820190506104cd6000830186610419565b81810360208301526104df818561047f565b90506104ee6040830184610419565b949350505050565b600060208201905061050b6000830184610419565b92915050565b600080fd5b600080fd5b7f4e487b7100000000000000000000000000000000000000000000000000000000600052604160045260246000fd5b6105538261046e565b810181811067ffffffffffffffff821117156105725761057161051b565b5b80604052505050565b60006105856103a2565b9050610591828261054a565b919050565b600067ffffffffffffffff8211156105b1576105b061051b565b5b6105ba8261046e565b9050602081019050919050565b82818337600083830152505050565b60006105e96105e484610596565b61057b565b90508281526020810184848401111561060557610604610516565b5b6106108482856105c7565b509392505050565b600082601f83011261062d5761062c610511565b5b813561063d8482602086016105d6565b91505092915050565b60006020828403121561065c5761065b6103ac565b5b600082013567ffffffffffffffff81111561067a576106796103b1565b5b61068684828501610618565b91505092915050565b7f496e76616c6964206f7074696f6e2e0000000000000000000000000000000000600082015250565b60006106c5600f83610433565b91506106d08261068f565b602082019050919050565b600060208201905081810360008301526106f4816106b8565b9050919050565b7f4e487b7100000000000000000000000000000000000000000000000000000000600052601160045260246000fd5b6000610735826103b6565b9150610740836103b6565b9250828203905081811115610758576107576106fb565b5b92915050565b7f4e487b7100000000000000000000000000000000000000000000000000000000600052603260045260246000fd5b6000610798826103b6565b91507fffffffffffffffffffffffffffffffffffffffffffffffffffffffffffffffff82036107ca576107c96106fb565b5b600182019050919050565b7f4e487b7100000000000000000000000000000000000000000000000000000000600052602260045260246000fd5b6000600282049050600182168061081c57607f821691505b60208210810361082f5761082e6107d5565b5b50919050565b6000610840826103b6565b915061084b836103b6565b9250828201905080821115610863576108626106fb565b5b92915050565b60008190508160005260206000209050919050565b60006020601f8301049050919050565b600082821b905092915050565b6000600883026108cb7fffffffffffffffffffffffffffffffffffffffffffffffffffffffffffffffff8261088e565b6108d5868361088e565b95508019841693508086168417925050509392505050565b6000819050919050565b600061091261090d610908846103b6565b6108ed565b6103b6565b9050919050565b6000819050919050565b61092c836108f7565b61094061093882610919565b84845461089b565b825550505050565b600090565b610955610948565b610960818484610923565b505050565b5b818110156109845761097960008261094d565b600181019050610966565b5050565b601f8211156109c95761099a81610869565b6109a38461087e565b810160208510156109b2578190505b6109c66109be8561087e565b830182610965565b50505b505050565b600082821c905092915050565b60006109ec600019846008026109ce565b1980831691505092915050565b6000610a0583836109db565b9150826002028217905092915050565b610a1e82610428565b67ffffffffffffffff811115610a3757610a3661051b565b5b610a418254610804565b610a4c828285610988565b600060209050601f831160018114610a7f5760008415610a6d578287015190505b610a7785826109f9565b865550610adf565b601f198416610a8d86610869565b60005b82811015610ab557848901518255600182019150602085019450602081019050610a90565b86831015610ad25784890151610ace601f8916826109db565b8355505b6001600288020188555050505b50505050505056fea2646970667358221220f2429c0cdf8f1d2a43aba10e60e288a6284151f60bb55c3178f04b0f7cbecd2f64736f6c63430008120033",
  "immutableReferences": {},
  "source": "// SPDX-License-Identifier: MIT\npragma solidity >=0.8.18 <0.9.0;\n\ncontract ChoiceContract {\n    constructor() {\n        addOption(\"Erling Haaland\");\n        addOption(\"Lionel Messi\");\n        addOption(\"Kevin De Bruyne\");\n    }\n\n    struct Option {\n        uint256 id;\n        string name;\n        uint256 voteCount;\n    }\n\n    Option[] public options;\n\n    function addOption(string memory _name) public {\n        uint256 optionId = options.length + 1;\n        options.push(Option(optionId, _name, 0));\n    }\n\n    event Voted(uint256 optionId);\n\n    function vote(uint256 _optionId) public {\n        require(\n            _optionId > 0 && _optionId <= options.length,\n            \"Invalid option.\"\n        );\n\n        Option storage option = options[_optionId - 1];\n        option.voteCount++;\n\n        emit Voted(_optionId);\n    }\n\n    function getVoteCount(uint256 _optionId) public view returns (uint256) {\n        require(\n            _optionId > 0 && _optionId <= options.length,\n            \"Invalid option.\"\n        );\n\n        return options[_optionId - 1].voteCount;\n    }\n}\n",
  "sourcePath": "C:\\Users\\Christopher\\Desktop\\cipher-choice\\contracts\\ChoiceContract.sol",
  "compiler": {
    "name": "solc",
    "version": "0.8.18+commit.87f61d96.Emscripten.clang"
  },
  "schemaVersion": "3.4.16",
  "updatedAt": "2023-12-07T21:59:14.320Z",
  "networkType": "ethereum",
  "devdoc": {
    "kind": "dev",
    "methods": {},
    "version": 1
  },
  "userdoc": {
    "kind": "user",
    "methods": {},
    "version": 1
  }
}